:100000000C94C0000C94E8000C94E8000C94E800F8
:100010000C94E8000C94E8000C94E8000C94E800C0
:100020000C94E8000C94E8000C94E8000C94E800B0
:100030000C94E8000C94E8000C94E8000C94E800A0
:100040000C94E8000C94E8000C94E8000C94E80090
:100050000C94E8000C94E8000C94E8000C94E80080
:100060000C94E8000C94E8006E616E00696E660006
:1000700025632025640000407A10F35A00A0724ED8
:1000800018090010A5D4E80000E87648170000E43D
:100090000B54020000CA9A3B000000E1F505000085
:1000A00080969800000040420F000000A0860100EA
:1000B0000000102700000000E803000000006400BA
:1000C000000000000A000000000001000000000025
:1000D0002C76D888DC674F0823DFC1DFAE59E1B149
:1000E000B796E5E3E453C63AE651997696E8E6C258
:1000F0008426EB898C9B62ED407C6FFCEFBC9C9F5F
:1001000040F2BAA56FA5F490055A2AF75C936B6C80
:10011000F9676DC11BFCE0E40D47FEF520E6B50074
:10012000D0ED902E0300943577050080841E0800E2
:1001300000204E0A000000C80C333333330F986E92
:1001400012831141EF8D2114893BE65516CFFEE64F
:10015000DB18D1844B381BF77C1D901DA4BBE42415
:10016000203284725E228100C9F124ECA1E53D2792
:100170006364696E6F70737578585B000F052705AF
:1001800011241FBECFEFD4E0DEBFCDBF11E0A0E051
:10019000B1E0ECE3F4E202C005900D92A630B107A5
:1001A000D9F711E0A6E0B1E001C01D92A63CB1076D
:1001B000E1F711E0CEE7D1E004C02297FE010E94F2
:1001C0000212CC37D107C9F70E9401070C94111213
:1001D0000C940000A1E1B0E0E0EFF0E00C94C91154
:1001E0003C017F876E876A01FC011782168283813A
:1001F00081FD03C06FEF7FEF71C39E012F5F3F4F03
:10020000398B288BF3012381EE85FF8523FD8591B2
:1002100023FF8191FF87EE87882309F45CC3853231
:1002200051F4EE85FF8523FD859123FF8191FF87A2
:10023000EE87853229F490E0B3010E94E40CE2CF0E
:10024000982F10E0882499241032B0F49B3269F082
:100250009C3228F4903251F0933271F40BC09D32ED
:1002600039F0903349F4116028C01260146025C041
:10027000186023C0106121C017FD2AC0892F805348
:100280008A3078F416FF06C0FAE09F9E902C112465
:10029000980E13C03AE0839E802C1124880E1062C1
:1002A0000CC09E3221F416FD16C3106406C09C36A5
:1002B00011F4106802C0983659F4EE85FF8523FDCD
:1002C000959123FF9191FF87EE87992309F0BCCF89
:1002D000892F8554833020F4812F8061905E07C080
:1002E000892F8556833008F0A1C1812F8F7E86FD2E
:1002F00002C076E0972E6FE3F62EF822953619F4B9
:10030000F0E4FF2A07C0963619F420E8F22A02C06A
:1003100091109A94F7FE0BC03BE3391520F427E0C7
:100320005CE3B52E0EC0B92CB39427E00AC047E0B9
:10033000491528F427E0BB2447E0942E02C0292D5C
:10034000BB24C60104969D878C87F601608171816C
:1003500082819381AE014F5F5F4F0B2D0E94AA0BEC
:100360006C010981202E332400FF04C003FD02C06C
:100370001DE209C0F1FE02C01BE205C0F2FC02C092
:1003800010E001C010E2C1018C709070892BB9F1AE
:10039000112311F483E001C084E0881510F0882453
:1003A0000AC0881AF3FC07C080E290E0B3010E9403
:1003B000E40C8A94C9F7112329F0812F90E0B3014E
:1003C0000E94E40C23FE03C008E610E00EC00CE619
:1003D00010E00BC0E114F10409F0805290E0B30189
:1003E0000E94E40C0F5F1F4F05C0EF2CFF24F0E1CB
:1003F000EF22FF24F8018491882361F714C1F7FEEE
:1004000012C0BC0C24FE04C08A81813309F4BA9462
:100410001B141CF0BB24B3942DC0F8E0FB1550F561
:1004200038E0B32E27C0F6FC25C0892D90E08C154E
:100430009D054CF02CEFC2162FEFD20624F030E8C9
:10044000F32A01C09A94992049F0E2E0F0E0EC0F21
:10045000FD1FE90DF11D80818033A1F3F7FE0AC075
:10046000B92CB394892D90E0C816D90614F09924BC
:1004700001C09C18F7FC03C025E030E009C01C1443
:100480001D041CF021E030E003C096012F5F3F4FB8
:10049000112311F02F5F3F4F992029F0892D90E013
:1004A0000196280F391F882D90E02817390714F07E
:1004B000882401C0821A4F2C5524C2018970907083
:1004C000892B39F008C080E290E0B3010E94E40C6F
:1004D0008A948820C1F7112329F0812F90E0B3017D
:1004E0000E94E40C43FE07C008C080E390E0B30123
:1004F0000E94E40C8A948820C1F7F7FE46C086016A
:10050000D7FE02C000E010E076010894E11CF11C67
:10051000E01AF10A41E050E04C0F5D1FE40EF51EB9
:1005200026014B185108892D90E0AA24BB24A81A53
:10053000B90A5FEF0F3F150729F48EE290E0B3018F
:100540000E94E40CC016D10634F0401651061CF48B
:10055000F701808101C080E3015010400894E11C44
:10056000F11C0A151B052CF090E0B3010E94E40C6D
:10057000E0CF0C151D0539F49A81963318F49533A4
:1005800011F424FE81E390E04BC08A81813309F0AD
:100590000F7E90E0B3010E94E40C9920A1F08EE25E
:1005A00090E0B3010E94E40C12E0E1E0F0E0EC0F17
:1005B000FD1FE10FF11D1F5F808190E0B3010E94DC
:1005C000E40C9A9491F744FC03C085E690E002C0E5
:1005D00085E490E0B3010E94E40CD7FC05C0C1148F
:1005E000D10441F404FF06C0D094C194D108D3943F
:1005F0008DE201C08BE290E0B3010E94E40C80E345
:1006000005C08F5F26EF3FEFC20ED31E3AE0C31640
:10061000D104BCF790E0B3010E94E40CC601C0967F
:10062000B3010E94E40CCC84DD8452C1933631F0D6
:10063000933799F0933509F059C023C0F6018081B2
:1006400089835E010894A11CB11C22E030E0C20E37
:10065000D31E21E0E22EF12C12C0F601A080B18061
:1006600016FD03C06FEF7FEF02C0692D70E022E03E
:1006700030E0C20ED31EC5010E948D0C7C011F7795
:1006800013C0F601A080B18016FD03C06FEF7FEFAD
:1006900002C0692D70E022E030E0C20ED31EC50119
:1006A0000E94820C7C01106813FF07C01BC080E20F
:1006B00090E0B3010E94E40C8A94882D90E0E81643
:1006C000F906A8F30FC0F50117FD859117FF819179
:1006D0005F0190E0B3010E94E40C81108A940894B9
:1006E000E108F108E114F10471F7F2C0943611F059
:1006F000993689F517FF08C0F601208131814281C2
:10070000538184E090E00AC0F601808191819C01D0
:10071000442737FD4095542F82E090E0C80ED91E43
:100720009FE6F92EF12257FF09C05095409530956C
:1007300021953F4F4F4F5F4F90E8F92ACA01B90109
:10074000AE014F5F5F4F2AE030E00E94360DE82E89
:10075000E889EE1A41C0953721F41F7E2AE030E087
:100760001CC0197F9F3661F0903720F4983509F04E
:10077000B2C00FC0903739F0983709F0ACC004C050
:1007800028E030E00AC0106114FD146020E130E080
:1007900004C014FD166020E132E017FF08C0F60126
:1007A000608171818281938144E050E008C0F6014C
:1007B00080819181BC0180E090E042E050E0C40E75
:1007C000D51EAE014F5F5F4F0E94360DE82E58894F
:1007D000E51A8FE7F82EF122F6FE0BC08EEFF82215
:1007E000E91438F4F4FE07C0F2FC05C09FEEF922CC
:1007F00002C01E2D01C0192DF4FE0DC0FE01EE0D2C
:10080000F11D8081803319F4E9EEFE2208C01F5FDC
:10081000F2FE05C003C08F2D867809F01F5F0F2DF3
:10082000F3FC14C0F0FE0FC0181510F09E2C0BC086
:100830009E2C980C911A182D06C080E290E0B3010E
:100840000E94E40C1F5F1815C0F304C0181510F4C3
:10085000811A01C0882404FF0FC080E390E0B30137
:100860000E94E40C02FF1DC001FD03C088E790E078
:100870000EC088E590E00BC0802F867891F001FFD4
:1008800002C08BE201C080E2F7FC8DE290E0B30190
:100890000E94E40C06C080E390E0B3010E94E40CE7
:1008A0009A94E914C0F3EA94E1E0F0E0EC0FFD1F44
:1008B000EE0DF11D808190E0B3010E94E40CEE206A
:1008C00091F706C080E290E0B3010E94E40C8A94A4
:1008D0008820C1F797CCF30166817781CB016196BF
:1008E000E2E10C94E5111F93E6E0F1E053E8509348
:1008F000060182E08093070133E030930C0126E08B
:1009000020930D0150930E0130930F01B2E8B09384
:10091000120194E0909313013093180188E08093C2
:10092000190113E410931E0181E080931F0150937D
:1009300020012093210190932401AAE0A093250196
:1009400043EC40932A0120932B0172EC7093300109
:1009500067E060933101909332012CE020933301E2
:10096000309336018DE08093370194E49093380101
:1009700085E08093390140933C0189E080933D01FB
:1009800050933E018BE080933F01B093420125AF2D
:1009900096AF67AF3093480180E18093490150934F
:1009A0004E018EE080934F0110935401A0935501A6
:1009B00040935A0180935B01709360018FE08093B4
:1009C0006101CF011F91089590938B0080938A005D
:1009D00008959093890080938800089580E090E9BD
:1009E00090938700809386008DEC9AE090938B0023
:1009F00080938A008CEC9AE0909389008093880021
:100A000082EA809380008AE1809381000895FC014E
:100A100081E090E091838083138212820895A6E0A2
:100A2000B1E01C9211961C921197FD01329612961C
:100A30001C92129713961C92139712821382169689
:100A400081E0AC39B80769F71D921C9208950895AA
:100A5000CF92DF92EF92FF920F931F93CF93DF938A
:100A60006C01E901D801FC018081918182309105FE
:100A700029F58CEC9AE090938B0080938A009093F8
:100A80008900809388008881882341F0E42FF0E07A
:100A9000EE0FFF1FEE0DFF1D81818C93F601228169
:100AA00033818C9190E02817390709F456C02883C8
:100AB00085E090E0FB01918380834FC085309105F4
:100AC00049F486E69EE090938B0080938A0083E34E
:100AD00097E03FC08430910519F486E69EE035C06A
:100AE0008630910519F486E69EE005C087309105B1
:100AF00049F483E397E090938B0080938A008CEC19
:100B00009AE027C08930910519F483E397E01DC06E
:100B10008830910549F483E397E090938B008093AC
:100B20008A0086E69EE015C08330910561F00A9741
:100B300051F48CEC9AE090938B0080938A00FB0137
:100B4000118210820AC08CEC9AE090938B00809303
:100B50008A00909389008093880081E090E0F601FC
:100B60009183808313821282FB018081918101979E
:100B700021F482E390E00E94560BDF91CF911F9108
:100B80000F91FF90EF90DF90CF900895249A2C9AC8
:100B90008EE190E00E94560B2C9824981C9BFECF6F
:100BA00080918400909185001C99FECF2091840053
:100BB00030918500281B390BC9010895FF920F93CE
:100BC0001F93DF93CF93CDB7DEB728970FB6F89476
:100BD000DEBF0FBECDBF262FF42E19821A828E01E2
:100BE0000D5F1F4F30E021503040B901660F771F75
:100BF000620F731F660F771F680F791FC8010E946D
:100C00000D09C801BE016F5F7F4F4F2D0E944A0939
:100C1000882319F420E030E005C08981282F30E0D6
:100C2000207C3070C90128960FB6F894DEBF0FBE45
:100C3000CDBFCF91DF911F910F91FF9008950F933A
:100C40001F93DF93CF9300D00F92CDB7DEB78C0107
:100C5000FC01138212821B821A82CE010196BE0110
:100C60006E5F7F4F0E94260B8230D1F58A819B8177
:100C7000F801938382838981873419F482E090E0BC
:100C80002DC0833519F483E090E027C0853419F432
:100C900084E090E022C0813519F485E090E01DC029
:100CA000863419F486E090E018C0823419F487E0A5
:100CB00090E013C0833419F488E090E00EC08A35C8
:100CC00019F489E090E009C0843519F48AE090E0D5
:100CD00004C08C3429F481E090E0F8019183808392
:100CE0000F900F900F90CF91DF911F910F9108956A
:100CF0008F929F92AF92BF92CF92DF92EF92FF922C
:100D00000F931F93CF93DF938AB18C638AB98EE3DD
:100D10008BB98AE090E00E94440B1BB85298C0E067
:100D2000D0E0E0E18E2EE7E29E2E70E1E72E77E242
:100D3000F72E60E1C62E67E2D62E00E117E250E101
:100D4000A52E57E2B52E81E090E00E94440B4A990F
:100D50005E014B998E014C996E014D994E014E9951
:100D60007E01C851DC4F87E2C031D80761F70A0D18
:100D70001B1DC8018C0D9D1D63E070E00E94B51124
:100D80009B01EC0CFD1CC701880D991D63E070E010
:100D90000E94B511261B370BC901DF91CF911F911E
:100DA0000F91FF90EF90DF90CF90BF90AF909F900A
:100DB0008F90089510928500109284001092B200D6
:100DC0008FEF8BB984B1866084B9259880E090E973
:100DD00090938700809386008DEC9AE090938B002F
:100DE00080938A008CEC9AE090938900809388002D
:100DF00082EA809380008AE1809381000E94060B42
:100E000008952F923F924F925F926F927F928F92AE
:100E10009F92AF92BF92CF92DF92EF92FF920F9389
:100E20001F93DF93CF93CDB7DEB7EF970FB6F8944C
:100E3000DEBF0FBECDBF0E9473049FAF8EAFFE0119
:100E40003A96CE01CC96108211823296E817F907B5
:100E5000D1F71DAE1CAE1A8284E0898301E010E058
:100E60001D830C830E94DA061F830E831986188661
:100E7000AA24BB2422243324CC2400E010E03E0129
:100E80000894611C711C9CEC492E9AE0592E82E654
:100E9000D82E93C181E090E00E94560BCE010696B9
:100EA0000E941F068C819D8182309105C9F4509269
:100EB0008B0040928A000894211C311C84E0281683
:100EC000310408F47AC181E090E09D838C8386E64A
:100ED0009EE090938B0080938A00222433246DC17E
:100EE0008330910509F067C086E69EE090938B0001
:100EF00080938A0001501040101611060CF45DC159
:100F00002E813F812130310549F050928B00409273
:100F10008A0081E090E09D838C834FC1EC2DF0E04E
:100F2000EE0FFF1FE60DF71D818590E08370907036
:100F30000097E9F5CC2039F450928B0040928A005A
:100F40003D832C832FC0CA94EC2DF0E0EE0FFF1FE1
:100F5000E60DF71D818590E09C0135952795359527
:100F6000279583709070892B21F42D9DC001112449
:100F700004C02D9DC00111240397080F191FCC2018
:100F800011F402561040EC2DF0E03196EE0FFF1FE9
:100F9000E60DF71D818590E083709070892B11F02C
:100FA00003501040509289004092880006C101977A
:100FB00009F0E1C0DDC08430910509F04FC0015057
:100FC0001040101611060CF4F8C083E090E09D83E9
:100FD0008C835092890040928800AB2811F0025611
:100FE0001040CC2049F450928B0040928A0081E05E
:100FF00090E09D838C832FC0CA94EC2DF0E0EE0F1F
:10100000FF1FE60DF71D818590E09C013595279522
:101010003595279583709070892B21F42D9DC00103
:10102000112404C02D9DC00111240397080F191F1E
:10103000CC2011F402561040EC2DF0E03196EE0F6A
:10104000FF1FE60DF71D818590E083709070892B5E
:1010500011F003501040AA24BB24AFC08530910585
:1010600009F068C050928B0040928A00AC2DB0E02D
:10107000FD01EE0FFF1FE60DF71DB2841196AA0FBA
:10108000BB1FA60DB71D8EAD9FAD1A966C914B2D53
:101090000E94DE054C011DAE1CAECE0103966EAD66
:1010A0007FAD49812A818401EAE0EE2EF12CEC0E1D
:1010B000FD1ECC24AA240E94B50ACCACFC2CFA94C8
:1010C000AF2DB0E0FD01EE0FFF1FE60DF71D81858E
:1010D00090E09C0135952795359527958370907004
:1010E000892B21F42D9D8001112405C02D9D8001A7
:1010F000112403501040AA0FBB1FA60DB71D8EADC3
:101100009FAD6B2D1A964C910E94DE05BC01C40167
:101110000E9473095C01009739F086E090E09D839E
:101120008C8306E910E049C083E090E09D838C83C6
:10113000CF2C43C08630910559F583E397E0909317
:101140008B0080938A000150104010161106ACF1FC
:1011500086E69EE090938B0080938A00EC2DF0E071
:10116000EE0FFF1FE60DF71D81858370813019F4A6
:1011700083E397E002C086E69EE090938900809327
:10118000880084E090E09D838C8302ED10E015C020
:10119000019799F4CE010696BE016C5F7F4F4C2DEE
:1011A0009E012E5F3F4F8301FAE0EF2EF12CEC0EF3
:1011B000FD1E0E94280500E010E08C819D81892B96
:1011C00009F068CE8CEC9AE090938B0080938A00B3
:1011D000FFCFCF93DF93FC01DB01108211820296D7
:1011E00012821382EC011A821B828C9180831196E9
:1011F0008C911197818312968C911297828313960A
:101200008C911397838314968C91149784831596ED
:101210008C918583DF91CF910895CF93DF93FC016B
:10122000DB0110821182029612821382EC011A8273
:101230001B828C91808311968C91119781831296D9
:101240008C911297828313968C91139783831496B3
:101250008C911497848315968C918583DF91CF911F
:101260000895FC01DB018C91808311968C9111977C
:10127000818312968C911297828313968C91139787
:10128000838314968C911497848315968C9185830F
:10129000CF010895CF93DF93DC01EB0111968C9180
:1012A0001197841719F4E0E0F0E011C013968C91C7
:1012B0001397841719F4E1E0F0E009C015968C91BA
:1012C0001597841711F080E00BC0E2E0F0E0EE0F1C
:1012D000FF1FEA0FFB1F808188838181898381E062
:1012E000DF91CF910895009749F46038710579F145
:1012F00020E030E0603C710541F525C08038910563
:1013000041F46034710519F120E030E0672BE9F415
:101310001AC08034910549F4603C7105C1F020E0A9
:1013200030E06038710589F40EC0803C910519F0F9
:1013300020E030E00AC06115710549F020E030E09E
:101340006034710511F421E030E0C901089522E014
:1013500030E0FBCF2F923F924F925F926F927F923D
:101360008F929F92AF92BF92CF92DF92EF92FF92B5
:101370000F931F93DF93CF93CDB7DEB72E970FB6A2
:10138000F894DEBF0FBECDBF9C838B837E836D83BD
:10139000B42E2F8319870887FB86EA86DD86CC86E4
:1013A000AE86982C421709F4BFC0D6015996ED912C
:1013B000FC915A973197AE0FBF1F31969F0107C01E
:1013C000215030408C9111978B1509F4AFC0211535
:1013D0003105B1F7C5C09F012F5F3F4FAC85BD857B
:1013E0005A963C932E935997AE0FBF1F07C02150BA
:1013F00030408C9111968C9311971197E217F30757
:10140000B0F32C853D85E20FF31FB0822B2C3324E3
:101410000894210831083101660C771C620C731C9A
:10142000660C771C6D817E81660E771E1A8219828A
:10143000D30111964C91442309F478C0491521F445
:10144000BE85BB1609F463C0F3018081482E552484
:10145000F0EC4F2255248B819C816D817E812F8100
:101460008201EA84FB84CC84DD84AE84892C0E94D2
:10147000AA09882309F44BC088859985B2010E9486
:101480007309582FF101EE0FFF1FE20DF31D2981A3
:101490003A81E20FF31FEE0FFF1F6D817E81E60F91
:1014A000F71F90814181AA85BB85D296ED91FC9171
:1014B000D397E931F105C0F59F012F5F3F4FD396D8
:1014C0003C932E93D297DF01AA0FBB1F6A857B85C1
:1014D000A60FB71F0DC0215030408C9112968C93EF
:1014E000129711968C91119713968C9313971297CC
:1014F000E217F30780F3EE0FFF1FAA85BB85EA0F03
:10150000FB1F990F990F952B908341830DC0E981A3
:10151000FA813196FA83E98322E030E0620E731E8D
:10152000339709F085CF02C081E001C080E02E969C
:101530000FB6F894DEBF0FBECDBFCF91DF911F91E4
:101540000F91FF90EF90DF90CF90BF90AF909F9062
:101550008F907F906F905F904F903F902F90089565
:10156000E931F10508F437CF51CF6F927F928F9216
:10157000AF92CF92DF92EF92FF920F931F93DF9380
:10158000CF93CDB7DEB76B970FB6F894DEBF0FBE23
:10159000CDBF37013C2D8A2C1B8E1A8E6E0108940C
:1015A000C11CD11CA32E0E94AA09F30142A953A970
:1015B000FA013297EE0FFF1FE60DF71D07C092816B
:1015C0009C7F80818370892B828332974150504069
:1015D000B1F7F30180818695869590E0880F991F79
:1015E000880F991F80836B960FB6F894DEBF0FBEED
:1015F000CDBFCF91DF911F910F91FF90EF90DF90C2
:10160000CF90AF908F907F906F9008950E94980B2D
:1016100083E89BE09093B7018093B6018DE89BE04F
:101620009093B9018093B80183E08093B101109247
:10163000BB011092BA018EEA91E09093BF018093B2
:10164000BE019093BD018093BC01089500D000D0ED
:1016500000D0EDB7FEB7319620E730E0ADB7BEB7AA
:1016600012963C932E9311979383828375836483A0
:101670000E94100D2DB73EB72A5F3F4F0FB6F8946A
:101680003EBF0FBE2DBF089520E030E00BC000002C
:10169000000000000000000000000000000000004A
:1016A0002F5F3F4F2817390790F3089540E050E02F
:1016B00013C020E030E00000000000000000000047
:1016C00000000000000000002F5F3F4F63E0283E55
:1016D000360789F74F5F5F4F4817590750F3089552
:1016E000982F8091C00085FFFCCF9093C60008958D
:1016F0008091C000807808958091C00087FFFCCF62
:101700008091C6000895982F8091C00085FFFCCF7E
:101710009093C60080E090E008958091C00087FF1C
:10172000FCCF2091C600332727FD3095C9010895CD
:101730001092C50087E08093C40088E18093C100C7
:1017400086E08093C2006DE87BE083E89BE00E9426
:10175000980C0895283008F027E03327DA01990F14
:10176000311D87FD916000966105710539F4326085
:101770002E5F3D9330E32A95E1F708959F3F30F0C7
:1017800080387105610509F03C5F3C5F3D93913005
:1017900008F08068911DDF93CF931F930F93FF9202
:1017A000EF92192F987F9695E92F96959695E90FC8
:1017B000FF27E053FF4F99273327EE24FF24A7018B
:1017C000E70105900894079428F4360FE71EF81EE9
:1017D000491F511D660F771F881F991F0694A1F797
:1017E0000590079428F4E70EF81E491F561FC11DE7
:1017F000770F881F991F661F0694A1F7059007941D
:1018000028F4F80E491F561FC71FD11D880F991FB6
:10181000661F771F0694A1F70590079420F4490FDF
:10182000561FC71FD81F990F661F771F881F069462
:10183000A9F784911095177041F0D695C7955795E3
:101840004795F794E7941A95C1F7E6E7F0E06894B6
:101850001590159135916591959105907FE273955D
:10186000E118F10A430B560BC90BD009C0F7E10C84
:10187000F11E431F561FC91FD01D7EF4703311F493
:101880008A95E6CFE894015030F0080F0AF400275B
:10189000021708F4202F2395022F7A3328F079E3DA
:1018A0007D932A95E9F710C07D932A9589F60694D1
:1018B00097956795379517951794E118F10A430B9B
:1018C000560BC90BD00998F023957E9173957A3306
:1018D00008F070E37C932013B8F77E9170617D93DC
:1018E00030F0839571E37D9370E32A95E1F711243D
:1018F000EF90FF900F911F91CF91DF91992787FD76
:1019000090950895FC010590615070400110D8F742
:10191000809590958E0F9F1F0895FC016150704037
:1019200001900110D8F7809590958E0F9F1F089514
:101930000F931F93CF93DF938C01EB01009731F44A
:101940006115710519F420E030E038C081E090E0C5
:101950006EE070E00E942910FC019C01009771F17B
:1019600080E88383209771F0D387C28781E88383DF
:101970008091BC019091BD01892B21F4F093BD01B0
:10198000E093BC0101151105C9F01187008783811F
:10199000826083838091BE019091BF01892B71F495
:1019A000F093BF01E093BE018091C0019091C1010D
:1019B000892B21F4F093C101E093C001C901DF91AB
:1019C000CF911F910F9108950F931F93CF93DF93A2
:1019D0008C01EB018B8181FF1BC082FF0DC02E812A
:1019E0003F818C819D812817390764F4E881F98152
:1019F0000193F983E88306C0E885F985802F09956E
:101A0000892B31F48E819F8101969F838E8302C042
:101A10000FEF1FEFC801DF91CF911F910F91089534
:101A2000A0E0B0E0E6E1FDE00C94D911FE013596AE
:101A300061917191A091BC01B091BD0113968C91FF
:101A40001397886013968C938091BC019091BD018F
:101A5000AF010E94180FE091BC01F091BD012381FC
:101A6000277F23832096E2E00C94F511FA01AA2740
:101A7000283051F1203181F1E8946F936E7F6E5FD1
:101A80007F4F8F4F9F4FAF4FB1E03ED0B4E03CD07F
:101A9000670F781F891F9A1FA11D680F791F8A1F62
:101AA000911DA11D6A0F711D811D911DA11D20D0C9
:101AB00009F468943F912AE0269F11243019305D83
:101AC0003193DEF6CF010895462F4770405D419374
:101AD000B3E00FD0C9F7F6CF462F4F70405D4A33C1
:101AE00018F0495D31FD4052419302D0A9F7EACF89
:101AF000B4E0A6959795879577956795BA95C9F7B8
:101B000000976105710508959B01AC010A2E0694AA
:101B10005795479537952795BA95C9F7620F731F63
:101B2000841F951FA01D0895FC0120FD08C023FD02
:101B300005C022FF02C073836283518340830895EE
:101B4000EF92FF920F931F9344FF02C033E011C046
:101B500046FF02C034E00DC0DB01FC01AA0FBB1F31
:101B6000EE1FFF1F1094D1F76A0F7B1F8E1F9F1F60
:101B700031E0660F771F881F991F3150D1F77B0125
:101B80008C01E20EF11C011D111DA8019701B70186
:101B9000CA011F910F91FF90EF9008950F931F932B
:101BA000CF93DF938C01C8010E945911EC0197FD7E
:101BB00008C00E940612892BB1F7CE01B8010E941D
:101BC0009B11CE01DF91CF911F910F910895A0E05D
:101BD000B0E0EDEEFDE00C94D111EC01C62E5A01FF
:101BE000122F0E945911AC018B3219F08D3251F431
:101BF0001068CA9409F46DC0CE010E945911AC015D
:101C000097FD67C06DEFD62ED1228D2D807301F523
:101C10004033F1F4CA9409F447C0CE010E9459112F
:101C2000AC0197FD41C082E0D82A483711F0483511
:101C300059F480E4D82ACA94B9F1CE010E9459110E
:101C4000AC0199232CF430C0D6FC02C080E1D82A24
:101C5000EE24FF248701242F2053283088F0D4FC61
:101C600009C02A3068F0D6FE05C02F7D822F815131
:101C7000863028F0CA01BE010E949B1112C0275075
:101C8000C801B7014D2D0E94A00D7B018C0182E09F
:101C9000D82ACA9461F0CE010E945911AC0197FF75
:101CA000DACFD1FC04C015C0EE24FF248701D7FE93
:101CB00008C010950095F094E094E11CF11C011D02
:101CC000111DC501B801A7012D2D0E94940D81E0C1
:101CD00001C080E0CDB7DEB7EAE00C94ED11A0E2E0
:101CE000B0E0E5E7FEE00C94CD116C01A62E8A0170
:101CF0007901FE01319680E2DF011D928A95E9F7B4
:101D000070E030E060E040E050E04F01A1E0B0E082
:101D1000F6018381F70183FD259183FF21917F01E6
:101D2000222309F47EC02E3519F44115510569F1BD
:101D3000872F90E08417950744F42D3551F12D320B
:101D400021F4332329F431E021C0332309F4622F35
:101D5000322F832F869586958695F401E80FF11D25
:101D6000832F87703D0102C0660C771C8A95E2F7CD
:101D7000208126292083361711F430E007C036175A
:101D800010F43F5FE6CF3150E4CF71E04F5F5F4F1B
:101D9000BFCF332319F08E8180628E83772359F071
:101DA000FE0131969E012F5D3F4F8081809581938A
:101DB000E217F307D1F7BB24B3944E010894811CBA
:101DC000911CC6010E945911AC0197FD22C0869555
:101DD00086958695F401E80FF11D808190E09A01C7
:101DE0002770307002C0959587952A95E2F780FD9F
:101DF00005C0CA01B6010E949B110BC00115110557
:101E000019F0D8014D938D01AA94BB24AA20C9F6DC
:101E100002C0BB2031F40115110529F0F801108230
:101E200002C0EE24FF24C701A096EEE00C94E91155
:101E3000A0E0B0E0EEE1FFE00C94CD115C016B019D
:101E40003A01FC01178216828824EAC0812F90E0B3
:101E50000E940612892B21F0C5010E94CE0DE0C020
:101E6000153249F4F601F3FC6591F3FE61916F01BF
:101E7000653269F415E2C5010E94591197FDDCC075
:101E8000181709F4CDC0B5010E949B11DAC06A325F
:101E900019F0162F00E006C0F3FC1591F3FE119126
:101EA0006F0101E099240FC00260692D70E080E0AD
:101EB00090E040E20E94A00D962EF601F3FC1591F1
:101EC000F3FE11916F01212F20532A3068F301FD99
:101ED00003C099249A9403C0992009F4B2C018361B
:101EE00021F01C3699F4F6010BC0F601F3FC659164
:101EF000F3FE6191683619F06F01162F07C0086074
:101F00000460F3FC1591F3FE11916F01112309F4A4
:101F100098C080E791E0612F70E00E944711892B03
:101F200009F48FC0802F00FF03C0EE24FF2407C0F8
:101F3000F301E080F18022E030E0620E731E1E3675
:101F400051F4F5014681578160E070E0C701202F10
:101F50000E94940D65C0133691F481FD02C099244E
:101F60009394C5010E94591197FD66C0E114F104D4
:101F700019F0F70181937F019A9499F74FC01B35AF
:101F800059F4C501692DA70196010E946F0E6C01DD
:101F9000009709F043C03DC0C5010E94CE0D97FDDA
:101FA0004BC01F3659F1103728F4143629F1193671
:101FB00039F527C0133719F0153711F51DC0C501C4
:101FC0000E945911EC0197FD11C00E940612892B45
:101FD00029F0CE01B5010E949B1108C0E114F10463
:101FE00019F0F701C1937F019A9449F7E114F104C4
:101FF000A9F0F701108212C0006203C0006101C0A5
:102000000064C501692DA701202F0E94E70D8823D8
:1020100029F4F5018381807379F413C000FF839460
:10202000F501F380F601F3FC1591F3FE11916F01B8
:10203000112309F00BCF05C0882019F42FEF3FEFD3
:1020400002C0282D30E0C901CDB7DEB7EEE00C9418
:10205000E9110F931F93CF93DF93689F8001699FCE
:10206000100D789F100D1124C8010E944510EC013D
:10207000009729F060E070E0A8010E945211CE01A3
:10208000DF91CF911F910F910895CF93DF93BC0102
:102090008230910510F462E070E0A091C401B0912B
:1020A000C501ED01E0E0F0E040E050E021C08881B2
:1020B00099818617970769F48A819B81309719F077
:1020C0009383828304C09093C5018093C401FE0171
:1020D00034C06817790738F44115510519F0841791
:1020E000950708F4AC01FE018A819B819C01E901FE
:1020F0002097E9F641155105A9F1CA01861B970BF6
:10210000049708F4BA01E0E0F0E02AC08D919C91B8
:10211000119784179507F9F46417750781F41296DF
:102120008D919C911397309719F09383828304C00B
:102130009093C5018093C401FD0132964CC0CA0141
:10214000861B970BFD01E80FF91F619371930297AE
:102150008D939C9340C0FD01828193819C01D901A4
:102160001097A1F68091C2019091C301892B41F48F
:1021700080910201909103019093C3018093C20169
:1021800040910401509105014115510541F44DB7AD
:102190005EB78091000190910101481B590B20917D
:1021A000C2013091C301CA01821B930B86179707A6
:1021B00080F0AB014E5F5F4F8417950750F0420FE0
:1021C000531F5093C3014093C201F901619371936E
:1021D00002C0E0E0F0E0CF01DF91CF910895CF930E
:1021E000DF93009709F450C0EC0122971B821A82FA
:1021F000A091C401B091C501109709F140E050E0F1
:10220000AC17BD0708F1BB83AA83FE012191319170
:10221000E20FF31FAE17BF0779F48D919C911197D0
:10222000280F391F2E5F3F4F3983288312968D91D7
:102230009C9113979B838A834115510571F4D09328
:10224000C501C093C40120C012968D919C91139733
:10225000AD01009711F0DC01D3CFFA01D383C28323
:1022600021913191E20FF31FCE17DF0769F48881C6
:102270009981280F391F2E5F3F4FFA013183208348
:102280008A819B8193838283DF91CF910895FC01A2
:102290000590061621F00020D9F7C0010895319766
:1022A000CF010895DC0101C06D9341505040E0F72B
:1022B0000895CF93DF93EC014B8140FF1AC046FF96
:1022C0000AC04F7B4B838E819F8101969F838E83B3
:1022D0008A81282F2BC042FF13C0E881F9818081B9
:1022E000282F332727FD30952115310529F4406229
:1022F0004B832FEF3FEF1BC03196F983E88311C06A
:10230000EA85FB85CE0109959C0197FF0AC09B8158
:102310002F5F3F4F11F080E201C080E1892B8B835A
:10232000E8CF8E819F8101969F838E8330E0C90123
:10233000DF91CF9108959C01FB01838180FF11C043
:1023400086FD0FC09FEF2F3F390759F0228380642D
:102350008F7D83838681978101979783868330E081
:1023600002C02FEF3FEFC9010895AA1BBB1B51E12B
:1023700007C0AA1FBB1FA617B70710F0A61BB70BF5
:10238000881F991F5A95A9F780959095BC01CD019A
:1023900008952F923F924F925F926F927F928F9209
:1023A0009F92AF92BF92CF92DF92EF92FF920F93E4
:1023B0001F93CF93DF93CDB7DEB7CA1BDB0B0FB6EE
:1023C000F894DEBF0FBECDBF09942A8839884888AB
:1023D0005F846E847D848C849B84AA84B984C88441
:1023E000DF80EE80FD800C811B81AA81B981CE0F38
:1023F000D11D0FB6F894DEBF0FBECDBFED0108951D
:10240000EE0FFF1F0590F491E02D0994911106C085
:10241000803219F089508550D0F708959927882780
:10242000089511E0CEE7D1E004C0FE010E9402123F
:0C2430002296C038D107C9F7F894FFCFFE
:00000001FF
